:1000000010C022C021C020C01FC01EC01DC01CC007
:100010001BC01AC019C018C017C016C015C014C024
:1000200013C011241FBECFE5D2E0DEBFCDBF10E06C
:10003000A0E6B0E0EAEEF1E002C005900D92A03635
:10004000B107D9F73CD0CFC0DBCF2BB348B3466064
:1000500050E08F3F910519F014F04B7F9A9580384E
:1000600091051CF04D7F80589109803491052CF04A
:10007000805491092FE730E002C02FEF30E080324A
:10008000910514F02F7B80978031910514F02F7D1E
:1000900040978830910514F02F7E089784309105A1
:1000A00014F0277F04978230910514F02B7F02977C
:1000B000181619060CF42D7F2BBB48BB08958FEF43
:1000C0008ABB86E087BB86B1876086B98FEF91E0F7
:1000D000BCDF8FE19EE40197F1F700C0000080E0F3
:1000E00090E0B3DFAFE1BEE41197F1F700C000008C
:1000F0000F2EF6E07F2EF02D88248394912CE12C96
:10010000F12CA12C09E010E00F2EF7E0BF2EF02D0E
:100110006894CC24C4F8D12C77BAE7ECF0E031979E
:10012000F1F700C00000482D592D2E2D3F2DEA2D4E
:100130008E2D9F2D04C02F5F3F4F4F5F5F4FD89A8A
:10014000AFECB7E01197F1F700C00000D898AFEC22
:10015000B7E01197F1F700C000002115310519F43F
:10016000E6B3E170E8CF2A30310584F466B36170FC
:10017000C62FB0E0DB2FB801621B730BDE0102C09B
:10018000AA0FBB1F6A95E2F78A0F9B1F40315105EA
:1001900094F2E13011F48E2D9F2DB7BAE7ECF0E028
:1001A0003197F1F700C00000C0982C2D3D2DD89A52
:1001B000AFECB7E01197F1F700C00000D898EFEC72
:1001C000F7E03197F1F700C000002150310979F7CD
:1001D0003CDFFFEF24E36CE0F15020406040E1F7AA
:0A01E00000C0000099CFF894FFCF93
:00000001FF
